{
  "contractName": "EthSwap",
  "abi": [
    {
      "inputs": [
        {
          "internalType": "contract Token",
          "name": "_token",
          "type": "address"
        }
      ],
      "stateMutability": "nonpayable",
      "type": "constructor"
    },
    {
      "anonymous": false,
      "inputs": [
        {
          "indexed": false,
          "internalType": "address",
          "name": "buyer",
          "type": "address"
        },
        {
          "indexed": false,
          "internalType": "uint256",
          "name": "quantity",
          "type": "uint256"
        }
      ],
      "name": "bought",
      "type": "event"
    },
    {
      "anonymous": false,
      "inputs": [
        {
          "indexed": false,
          "internalType": "address",
          "name": "buyer",
          "type": "address"
        },
        {
          "indexed": false,
          "internalType": "uint256",
          "name": "quantity",
          "type": "uint256"
        }
      ],
      "name": "sell",
      "type": "event"
    },
    {
      "inputs": [],
      "name": "name",
      "outputs": [
        {
          "internalType": "string",
          "name": "",
          "type": "string"
        }
      ],
      "stateMutability": "view",
      "type": "function",
      "constant": true
    },
    {
      "inputs": [],
      "name": "tokensLeft",
      "outputs": [
        {
          "internalType": "uint256",
          "name": "",
          "type": "uint256"
        }
      ],
      "stateMutability": "view",
      "type": "function",
      "constant": true
    },
    {
      "inputs": [
        {
          "internalType": "uint256",
          "name": "_amount",
          "type": "uint256"
        }
      ],
      "name": "buyToken",
      "outputs": [
        {
          "internalType": "bool",
          "name": "success",
          "type": "bool"
        }
      ],
      "stateMutability": "payable",
      "type": "function",
      "payable": true
    },
    {
      "inputs": [
        {
          "internalType": "uint256",
          "name": "_amount",
          "type": "uint256"
        }
      ],
      "name": "sellToken",
      "outputs": [
        {
          "internalType": "bool",
          "name": "success",
          "type": "bool"
        }
      ],
      "stateMutability": "payable",
      "type": "function",
      "payable": true
    }
  ],
  "bytecode": "0x60806040526040518060400160405280600d81526020017f546974696c6f78782064656669000000000000000000000000000000000000008152506000908051906020019062000051929190620000cd565b503480156200005f57600080fd5b5060405162000b4b38038062000b4b833981810160405281019062000085919062000194565b80600160006101000a81548173ffffffffffffffffffffffffffffffffffffffff021916908373ffffffffffffffffffffffffffffffffffffffff1602179055505062000292565b828054620000db906200020e565b90600052602060002090601f016020900481019282620000ff57600085556200014b565b82601f106200011a57805160ff19168380011785556200014b565b828001600101855582156200014b579182015b828111156200014a5782518255916020019190600101906200012d565b5b5090506200015a91906200015e565b5090565b5b80821115620001795760008160009055506001016200015f565b5090565b6000815190506200018e8162000278565b92915050565b600060208284031215620001ad57620001ac62000273565b5b6000620001bd848285016200017d565b91505092915050565b6000620001d382620001ee565b9050919050565b6000620001e782620001c6565b9050919050565b600073ffffffffffffffffffffffffffffffffffffffff82169050919050565b600060028204905060018216806200022757607f821691505b602082108114156200023e576200023d62000244565b5b50919050565b7f4e487b7100000000000000000000000000000000000000000000000000000000600052602260045260246000fd5b600080fd5b6200028381620001da565b81146200028f57600080fd5b50565b6108a980620002a26000396000f3fe60806040526004361061003f5760003560e01c806306fdde03146100445780632397e4d71461006f5780632d296bf11461009f578063b31f8f93146100cf575b600080fd5b34801561005057600080fd5b506100596100fa565b60405161006691906106fa565b60405180910390f35b610089600480360381019061008491906105a4565b610188565b60405161009691906106df565b60405180910390f35b6100b960048036038101906100b491906105a4565b61038d565b6040516100c691906106df565b60405180910390f35b3480156100db57600080fd5b506100e4610532565b6040516100f1919061071c565b60405180910390f35b60008054610107906107ce565b80601f0160208091040260200160405190810160405280929190818152602001828054610133906107ce565b80156101805780601f1061015557610100808354040283529160200191610180565b820191906000526020600020905b81548152906001019060200180831161016357829003601f168201915b505050505081565b6000600160009054906101000a900473ffffffffffffffffffffffffffffffffffffffff1673ffffffffffffffffffffffffffffffffffffffff166323b872dd3330856040518463ffffffff1660e01b81526004016101e99392919061067f565b602060405180830381600087803b15801561020357600080fd5b505af1158015610217573d6000803e3d6000fd5b505050506040513d601f19601f8201168201806040525081019061023b9190610577565b503373ffffffffffffffffffffffffffffffffffffffff166108fc3073ffffffffffffffffffffffffffffffffffffffff16319081150290604051600060405180830381858888f19350505050158015610299573d6000803e3d6000fd5b50600160009054906101000a900473ffffffffffffffffffffffffffffffffffffffff1673ffffffffffffffffffffffffffffffffffffffff166370a08231306040518263ffffffff1660e01b81526004016102f59190610664565b60206040518083038186803b15801561030d57600080fd5b505afa158015610321573d6000803e3d6000fd5b505050506040513d601f19601f8201168201806040525081019061034591906105d1565b6002819055507f6c197ff5fb3c0793d2ced16096dc40420539c99ae6f83b0c62bea63dab16ac6b338360405161037c9291906106b6565b60405180910390a160019050919050565b6000600160009054906101000a900473ffffffffffffffffffffffffffffffffffffffff1673ffffffffffffffffffffffffffffffffffffffff1663a9059cbb33846040518363ffffffff1660e01b81526004016103ec9291906106b6565b602060405180830381600087803b15801561040657600080fd5b505af115801561041a573d6000803e3d6000fd5b505050506040513d601f19601f8201168201806040525081019061043e9190610577565b50600160009054906101000a900473ffffffffffffffffffffffffffffffffffffffff1673ffffffffffffffffffffffffffffffffffffffff166370a08231306040518263ffffffff1660e01b815260040161049a9190610664565b60206040518083038186803b1580156104b257600080fd5b505afa1580156104c6573d6000803e3d6000fd5b505050506040513d601f19601f820116820180604052508101906104ea91906105d1565b6002819055507f74f5fd5e58c3ec944ab8dbf077bf027876847cea1e7e828dd2a670d291b857fb33836040516105219291906106b6565b60405180910390a160019050919050565b60025481565b60008151905061054781610845565b92915050565b60008135905061055c8161085c565b92915050565b6000815190506105718161085c565b92915050565b60006020828403121561058d5761058c61082f565b5b600061059b84828501610538565b91505092915050565b6000602082840312156105ba576105b961082f565b5b60006105c88482850161054d565b91505092915050565b6000602082840312156105e7576105e661082f565b5b60006105f584828501610562565b91505092915050565b61060781610753565b82525050565b61061681610765565b82525050565b600061062782610737565b6106318185610742565b935061064181856020860161079b565b61064a81610834565b840191505092915050565b61065e81610791565b82525050565b600060208201905061067960008301846105fe565b92915050565b600060608201905061069460008301866105fe565b6106a160208301856105fe565b6106ae6040830184610655565b949350505050565b60006040820190506106cb60008301856105fe565b6106d86020830184610655565b9392505050565b60006020820190506106f4600083018461060d565b92915050565b60006020820190508181036000830152610714818461061c565b905092915050565b60006020820190506107316000830184610655565b92915050565b600081519050919050565b600082825260208201905092915050565b600061075e82610771565b9050919050565b60008115159050919050565b600073ffffffffffffffffffffffffffffffffffffffff82169050919050565b6000819050919050565b60005b838110156107b957808201518184015260208101905061079e565b838111156107c8576000848401525b50505050565b600060028204905060018216806107e657607f821691505b602082108114156107fa576107f9610800565b5b50919050565b7f4e487b7100000000000000000000000000000000000000000000000000000000600052602260045260246000fd5b600080fd5b6000601f19601f8301169050919050565b61084e81610765565b811461085957600080fd5b50565b61086581610791565b811461087057600080fd5b5056fea2646970667358221220678168e0cdbfd8ff1900ab5c3fac78e8f48a088c7456c65ce4c75d21be1a95fd64736f6c63430008060033",
  "immutableReferences": {},
  "source": "pragma solidity = 0.8.6;\r\nimport \"./Token.sol\";\r\n\r\ncontract EthSwap  {\r\n  string public name= \"Titiloxx defi\";\r\n  Token token;\r\n  uint256 public tokensLeft;\r\n  event bought(\r\n    address buyer,\r\n    uint quantity\r\n  );\r\n  event sell(\r\n    address buyer,\r\n    uint quantity\r\n  );\r\n\r\n  constructor(Token _token) {\r\n    token = _token;\r\n  }\r\n\r\n  function buyToken(uint _amount) public payable returns(bool success) {\r\n    token.transfer(msg.sender, _amount);\r\n    tokensLeft=token.balanceOf(address(this));\r\n    emit bought(msg.sender,_amount);\r\n    return true;\r\n  }\r\n\r\n  function sellToken(uint _amount) public payable returns(bool success) {\r\n    token.transferFrom(msg.sender,address(this),_amount);\r\n    payable(msg.sender).transfer(address(this).balance);\r\n    tokensLeft=token.balanceOf(address(this));\r\n    emit sell(msg.sender,_amount);\r\n    return true;\r\n  }\r\n}\r\n",
  "sourcePath": "C:\\Users\\titiloxx\\Documents\\GitHub\\LoxxToken\\src\\contracts\\EthSwap.sol",
  "compiler": {
    "name": "solc",
    "version": "0.8.6+commit.11564f7e.Emscripten.clang"
  },
  "schemaVersion": "3.4.2",
  "updatedAt": "2021-08-07T10:46:07.344Z",
  "networkType": "ethereum",
  "devdoc": {
    "kind": "dev",
    "methods": {},
    "version": 1
  },
  "userdoc": {
    "kind": "user",
    "methods": {},
    "version": 1
  }
}