{
  "contractName": "EthSwap",
  "abi": [
    {
      "inputs": [
        {
          "internalType": "contract Token",
          "name": "_token",
          "type": "address"
        }
      ],
      "stateMutability": "nonpayable",
      "type": "constructor"
    },
    {
      "anonymous": false,
      "inputs": [
        {
          "indexed": false,
          "internalType": "address",
          "name": "buyer",
          "type": "address"
        },
        {
          "indexed": false,
          "internalType": "uint256",
          "name": "quantity",
          "type": "uint256"
        }
      ],
      "name": "bought",
      "type": "event"
    },
    {
      "anonymous": false,
      "inputs": [
        {
          "indexed": false,
          "internalType": "address",
          "name": "buyer",
          "type": "address"
        },
        {
          "indexed": false,
          "internalType": "uint256",
          "name": "quantity",
          "type": "uint256"
        }
      ],
      "name": "sell",
      "type": "event"
    },
    {
      "inputs": [
        {
          "internalType": "uint256",
          "name": "_amount",
          "type": "uint256"
        }
      ],
      "name": "buyToken",
      "outputs": [
        {
          "internalType": "bool",
          "name": "success",
          "type": "bool"
        }
      ],
      "stateMutability": "payable",
      "type": "function",
      "payable": true
    },
    {
      "inputs": [
        {
          "internalType": "uint256",
          "name": "_amount",
          "type": "uint256"
        }
      ],
      "name": "sellToken",
      "outputs": [
        {
          "internalType": "bool",
          "name": "success",
          "type": "bool"
        }
      ],
      "stateMutability": "payable",
      "type": "function",
      "payable": true
    }
  ],
  "bytecode": "0x60806040526040518060400160405280600d81526020017f546974696c6f78782064656669000000000000000000000000000000000000008152506000908051906020019061004f9291906100c5565b5034801561005c57600080fd5b5060405161072d38038061072d833981810160405281019061007e919061017d565b80600160006101000a81548173ffffffffffffffffffffffffffffffffffffffff021916908373ffffffffffffffffffffffffffffffffffffffff1602179055505061026b565b8280546100d1906101ee565b90600052602060002090601f0160209004810192826100f3576000855561013a565b82601f1061010c57805160ff191683800117855561013a565b8280016001018555821561013a579182015b8281111561013957825182559160200191906001019061011e565b5b509050610147919061014b565b5090565b5b8082111561016457600081600090555060010161014c565b5090565b60008151905061017781610254565b92915050565b6000602082840312156101935761019261024f565b5b60006101a184828501610168565b91505092915050565b60006101b5826101ce565b9050919050565b60006101c7826101aa565b9050919050565b600073ffffffffffffffffffffffffffffffffffffffff82169050919050565b6000600282049050600182168061020657607f821691505b6020821081141561021a57610219610220565b5b50919050565b7f4e487b7100000000000000000000000000000000000000000000000000000000600052602260045260246000fd5b600080fd5b61025d816101bc565b811461026857600080fd5b50565b6104b38061027a6000396000f3fe6080604052600436106100295760003560e01c80632397e4d71461002e5780632d296bf11461005e575b600080fd5b6100486004803603810190610043919061032d565b61008e565b60405161005591906103e7565b60405180910390f35b6100786004803603810190610073919061032d565b6101e2565b60405161008591906103e7565b60405180910390f35b6000600160009054906101000a900473ffffffffffffffffffffffffffffffffffffffff1673ffffffffffffffffffffffffffffffffffffffff166323b872dd3330856040518463ffffffff1660e01b81526004016100ef93929190610387565b602060405180830381600087803b15801561010957600080fd5b505af115801561011d573d6000803e3d6000fd5b505050506040513d601f19601f820116820180604052508101906101419190610300565b503373ffffffffffffffffffffffffffffffffffffffff166108fc3073ffffffffffffffffffffffffffffffffffffffff16319081150290604051600060405180830381858888f1935050505015801561019f573d6000803e3d6000fd5b507f6c197ff5fb3c0793d2ced16096dc40420539c99ae6f83b0c62bea63dab16ac6b33346040516101d19291906103be565b60405180910390a160019050919050565b6000600160009054906101000a900473ffffffffffffffffffffffffffffffffffffffff1673ffffffffffffffffffffffffffffffffffffffff1663a9059cbb33846040518363ffffffff1660e01b81526004016102419291906103be565b602060405180830381600087803b15801561025b57600080fd5b505af115801561026f573d6000803e3d6000fd5b505050506040513d601f19601f820116820180604052508101906102939190610300565b507f74f5fd5e58c3ec944ab8dbf077bf027876847cea1e7e828dd2a670d291b857fb33346040516102c59291906103be565b60405180910390a160019050919050565b6000815190506102e58161044f565b92915050565b6000813590506102fa81610466565b92915050565b6000602082840312156103165761031561044a565b5b6000610324848285016102d6565b91505092915050565b6000602082840312156103435761034261044a565b5b6000610351848285016102eb565b91505092915050565b61036381610402565b82525050565b61037281610414565b82525050565b61038181610440565b82525050565b600060608201905061039c600083018661035a565b6103a9602083018561035a565b6103b66040830184610378565b949350505050565b60006040820190506103d3600083018561035a565b6103e06020830184610378565b9392505050565b60006020820190506103fc6000830184610369565b92915050565b600061040d82610420565b9050919050565b60008115159050919050565b600073ffffffffffffffffffffffffffffffffffffffff82169050919050565b6000819050919050565b600080fd5b61045881610414565b811461046357600080fd5b50565b61046f81610440565b811461047a57600080fd5b5056fea26469706673582212205a3d16d67533136e44187016fdf6bbcd7e034727cb9be36acab0f8bfd2b028df64736f6c63430008060033",
  "immutableReferences": {},
  "source": "pragma solidity = 0.8.6;\r\nimport \"./Token.sol\";\r\n\r\ncontract EthSwap  {\r\n  string name= \"Titiloxx defi\";\r\n  Token token;\r\n  event bought(\r\n    address buyer,\r\n    uint quantity\r\n  );\r\n  event sell(\r\n    address buyer,\r\n    uint quantity\r\n  );\r\n\r\n  constructor(Token _token) {\r\n    token = _token;\r\n  }\r\n\r\n  function buyToken(uint _amount) public payable returns(bool success) {\r\n    token.transfer(msg.sender, _amount);\r\n    emit bought(msg.sender,msg.value);\r\n    return true;\r\n  }\r\n\r\n  function sellToken(uint _amount) public payable returns(bool success) {\r\n    token.transferFrom(msg.sender,address(this),_amount);\r\n    payable(msg.sender).transfer(address(this).balance);\r\n    emit sell(msg.sender,msg.value);\r\n    return true;\r\n\r\n  }\r\n}\r\n",
  "sourcePath": "C:\\Users\\titiloxx\\Documents\\GitHub\\starter_kit\\src\\contracts\\EthSwap.sol",
  "compiler": {
    "name": "solc",
    "version": "0.8.6+commit.11564f7e.Emscripten.clang"
  },
  "schemaVersion": "3.4.2",
  "updatedAt": "2021-08-03T21:41:44.347Z",
  "networkType": "ethereum",
  "devdoc": {
    "kind": "dev",
    "methods": {},
    "version": 1
  },
  "userdoc": {
    "kind": "user",
    "methods": {},
    "version": 1
  }
}